:100000000C9434000C9451000C9451000C94510049
:100010000C9451000C9451000C9451000C9451001C
:100020000C9451000C9400040C9451000C94F103B6
:100030000C9451000C9451000C9451000C945100FC
:100040000C9417040C9451000C9451000C94510022
:100050000C9451000C9451000C9451000C945100DC
:100060000C9451000C94510011241FBECFEFD8E026
:10007000DEBFCDBF11E0A0E0B1E0E4E1FEE002C0F0
:1000800005900D92AA30B107D9F711E0AAE0B1E0CE
:1000900001C01D92AF31B107E1F70E944F040C94EB
:1000A00008070C94000021E030E0F90102C0EE0FD7
:1000B000FF1F8A95E2F79E2F7E2F709502C0220FB8
:1000C000331F6A95E2F7322F309550E047FF03C0A7
:1000D00085B1892B02C085B1872385B985B185B1EA
:1000E000822B85B985B1832385B95F5F583011F0C4
:1000F000440FECCF0895482F2A9881E063E00E94D6
:1001000053002A9A08951F93CF93DF9384B18E6092
:1001100084B910E0C0EADFE0812F0E947B00CE01AD
:100120000197F1F71F5F1F3FB9F780E00E947B0046
:1001300080E49CE90197F1F7DF91CF911F91089539
:10014000ECE7F0E0808180648083EAE7F0E0808182
:1001500084608083808180688083089590917C0092
:10016000907F982B90937C0080917A00806480939C
:100170007A0080917A0086FDFCCF20917800309142
:100180007900C90108952F923F924F925F926F922A
:100190007F928F929F92AF92BF92CF92DF92EF9217
:1001A000FF920F931F931B014A0128013901C01AC6
:1001B000D10AE20AF30A9C01261B370B40E050E00B
:1001C000C701B6010E94B30682189308AA24BB2473
:1001D000A50194010E94E606240D351D461D571DFC
:1001E000B901CA011F910F91FF90EF90DF90CF905E
:1001F000BF90AF909F908F907F906F905F904F9047
:100200003F902F900895BF92CF92DF92EF92FF928E
:100210000F931F93CF93DF93EC01B62E88B1837EAB
:1002200088B998B1E62FF0E0EF5FFE4F8081982B00
:1002300098B981E00E94AE0081E00E94AE0080503B
:10024000944018F08FEF93E003C081E00E94AE006D
:1002500060E070E04FEF53E000E010E020E030E0BD
:10026000EFE0CE2ED12CE12CF12C0E94C300CB0D5F
:10027000D11D6883DF91CF911F910F91FF90EF9077
:10028000DF90CF90BF900895AF92BF92CF92DF9250
:10029000EF92FF920F931F937B018C0124E630E0D5
:1002A00040E050E00E94E6065B016C01C801B70126
:1002B00022E830E040E050E00E94E606CA01B901C1
:1002C0002DE030E040E050E00E94E606A616B706BA
:1002D000C806D90628F420E030E040E050E004C031
:1002E0002FE730E040E050E0B901CA011F910F91C3
:1002F000FF90EF90DF90CF90BF90AF900895AF92B6
:10030000BF92CF92DF92EF92FF920F931F935B0108
:100310006C012EE730E040E050E00E94E6067B01F1
:100320008C01C601B5012DE730E040E050E00E94AD
:10033000E606E616F7060807190738F0A601950144
:100340002E7730704070507006C0A60195012D7751
:10035000307040705070B901CA011F910F91FF9029
:10036000EF90DF90CF90BF90AF900895EF92FF9203
:100370000F931F937B018C0116950795F794E794D3
:100380009B01AC01B3E05695479537952795BA95F3
:10039000D1F72170307040705070E21AF30A040BEC
:1003A000150BA5E0660F771F881F991FAA95D1F737
:1003B000E626F72608271927B701C8011F910F91D4
:1003C000FF90EF900895EF92FF920F931F937B01A0
:1003D0008C0128E130E040E050E00E94E6066C5FCE
:1003E0007F4F04C016950795F794E7946A95D2F766
:1003F000B701C8011F910F91FF90EF900895AF9240
:10040000BF92CF92DF92EF92FF920F931F937B01E7
:100410008C0121ED31E040E050E00E94B3065B0129
:100420006C01BFE016950795F794E794BA95D1F75C
:1004300083E090E0A0E0B0E0E822F9220A231B2349
:1004400061E070E080E090E06E257F2580279127B5
:1004500026E030E040E050E00E94B3069B01AC0192
:10046000255D3F4F4F4F5F4FC601B5010E94E60625
:10047000CA01B9011F910F91FF90EF90DF90CF90CB
:10048000BF90AF90089567FF0BC09B01AC015695DC
:10049000479537952795262337234823592306C0A8
:1004A0009B01AC012270307040705070B901CA01DC
:1004B0000895EF92FF920F931F939B01AC01EE24DE
:1004C000FF248701E61AF70A080B190BDC01CB01A0
:1004D00074E0B695A795979587957A95D1F783702F
:1004E000907004C0220F331F441F551F8A95D2F706
:1004F000D801C7016DE0B695A795979587956A9540
:10050000D1F78E219F21A023B123282739274A27FD
:100510005B27B901CA011F910F91FF90EF900895D9
:10052000EF92FF920F931F937B018C01483009F4E7
:100530009DC04930A8F4443009F44CC0453048F41B
:10054000423039F1433008F040C0413009F0F3C087
:100550001DC0463009F461C0473008F077C05AC06A
:100560004C3009F49EC04D3038F44A3009F484C050
:100570004B3008F084C07DC04E3009F4B1C04E301D
:1005800008F4ABC04F3009F0D6C0BFC00E94440190
:100590001EC0672F782F892F9927A8019701E7E0C0
:1005A0005695479537952795EA95D1F7622373239A
:1005B00084239523A80197010E94B3069B01AC01F7
:1005C0002F77307040705070BCC00E947F019B013B
:1005D000AC01B7C0DC01CB0123E0B695A795979598
:1005E00087952A95D1F781709070A070B0702227FE
:1005F0003327A901281B390B4A0B5B0BB5E0EE0C26
:10060000FF1C001F111FBA95D1F72E253F2540274B
:10061000512797C00E94B601DACF9B01AC01A2E03E
:10062000220F331F441F551FAA95D1F7260F371FDE
:10063000481F591FF7E016950795F794E794FA9528
:10064000D1F72E213F21402351237BC09B01AC01D8
:10065000E2E05695479537952795EA95D1F7CA0177
:10066000B90162747070807090704CC00E94E30198
:10067000AECF0E94FF01ABCF0E944302A8CF9B01E7
:10068000AC0174E056954795379527957A95D1F743
:100690002E213F21402351232751304040405040DC
:1006A00050C088E090E00E2C02C0959587950A9482
:1006B000E2F780FF0AC0A801970167E056954795C9
:1006C000379527956A95D1F73CC022273327A90192
:1006D0002E193F09400B510B34C00E94590277CFAD
:1006E0009B01AC0192E056954795379527959A95D1
:1006F000D1F785E016950795F794E7948A95D1F799
:10070000C801B7010E94B30662CF6F71707080702C
:100710009070A80197010E94B3069B01AC012E299D
:100720003F29402B512B14E0569547953795279537
:100730001A95D1F706C0A8019701220F331F441F55
:10074000551FB901CA011F910F91FF90EF900895B5
:10075000CF92DF92EF92FF920F931F9385E00E945A
:10076000AE0085E00E94AE008050944018F08FEFFC
:1007700093E003C085E00E94AE0060E070E04FEFC0
:1007800053E000E810E020E030E0C12CB4E0DB2EC4
:10079000E12CF12C0E94C3009B0170931E01609319
:1007A0001D01A3E0220F331FAA95E1F73093140136
:1007B000209313011F910F91FF90EF90DF90CF9046
:1007C000089549B160910E0170910F0180E090E0B1
:1007D00040954F700E949002709312016093110136
:1007E00008951F920F920FB60F9211248F9381E0FC
:1007F000809300018F910F900FBE0F901F9018955E
:100800001F920F920FB60F9211248F939F93809196
:100810000C0190910D01019690930D0180930C01B4
:100820009F918F910F900FBE0F901F9018951F9260
:100830000F920FB60F9211248F939F9380910A010C
:1008400090910B01019690930B0180930A019F9167
:100850008F910F900FBE0F901F90189510928000EF
:10086000E1E8F0E0108210928500109284008FEC95
:1008700097E09093890080938800808188608083CE
:1008800080818B7F808380818D7F80838081816068
:100890008083EFE6F0E080818260808308952F926C
:1008A0003F924F925F926F927F928F929F92AF9200
:1008B000BF92CF92DF92EF92FF920F931F93DF933D
:1008C000CF93CDB7DEB76A970FB6F894DEBF0FBEF1
:1008D000CDBFF89485B5826085BD16BC80916E0051
:1008E000816080936E000E942E048091B10082602E
:1008F0008093B1001092B20080917000816080936B
:1009000070000E9483008AB1807F8AB98BB18F60AA
:100910008BB987B18C6187B939980E94A00078940F
:100920000E94E10380910001882309F4F8C1E0905E
:100930000E01F0900F016091130170911401C70135
:100940000E94D2068C0120911D0130911E013A8F28
:10095000298FC0901101D090120130911501388F6C
:10096000332329F480E890E09F8B8E8B04C0AFE79F
:10097000B0E0BF8BAE8BE98DFA8D0E171F0718F410
:10098000A0E0B0E00BC0A0E0B0E0898D9A8D880FA8
:10099000991F0817190710F4A1E0B0E06091160143
:1009A000662329F420E830E03D8B2C8B04C08FE7D0
:1009B00090E09D8B8C8B898D9A8D880F991F0817DD
:1009C000190718F4222433240CC022243324E98D7F
:1009D000FA8D8E0F9F1F0817190718F471E0272E44
:1009E000312CF0911701FB8BFF2329F420E830E034
:1009F0003A8B298B04C08FE790E09A8B898B898D85
:100A00009A8D880F991FE98DFA8D8E0F9F1F0817F9
:100A1000190718F4442455240EC044245524898D04
:100A20009A8D880F991F880F991F0817190718F4B6
:100A300031E0432E512CF0911801F88BFF2329F45B
:100A400020E830E03F872E8704C08FE790E09F8743
:100A50008E87898D9A8D880F991F880F991F081787
:100A6000190718F4662477240CC066247724E98DCE
:100A7000FA8D8E0F9F1F0817190718F481E0682E52
:100A8000712CF0911901FD87FF2329F420E830E053
:100A90003C872B8704C08FE790E09C878B87898DEC
:100AA0009A8D880F991F880F991FE98DFA8D8E0FE7
:100AB0009F1F0817190718F48824992412C0882446
:100AC0009924898D9A8D880F991F298D3A8D820FCF
:100AD000931F880F991F0817190718F451E0852EE6
:100AE000912C30911A013A87332329F480E890E061
:100AF0009987888704C0EFE7F0E0F987E887898D58
:100B00009A8D880F991F298D3A8D820F931F880F18
:100B1000991F0817190718F4AA24BB2413C0AA2484
:100B2000BB24898D9A8D23E0880F991F2A95E1F7C0
:100B3000E98DFA8D8E1B9F0B0817190718F491E0A9
:100B4000A92EB12CF0911B01FF83FF2329F420E88B
:100B500030E03E832D8304C08FE790E09E838D8339
:100B6000498D5A8D83E0440F551F8A95E1F7CA01DC
:100B7000E98DFA8D8E1B9F0B0817190718F41C823C
:100B80001B820BC020E00417150708F021E0F1E0FC
:100B90002F27822F90E09C838B8340911C0144235C
:100BA00029F4E0E8F0E0FA83E98304C02FE730E0BD
:100BB0003A832983AC9DF001AD9DF00DBC9DF00DF5
:100BC0001124C70170E00E94D206E623F7238C8926
:100BD0009D89E823F92380E090E0A98DBA8D0A175A
:100BE0001B0710F481E090E08C9D90018D9D300DED
:100BF0009C9D300D1124C701688D70E00E94D206C3
:100C0000262337238E899F8928233923E22BF32B30
:100C10002C9C90012D9C300D3C9C300D1124C70163
:100C20006B8970E00E94D20626233723A989BA89EE
:100C30002A233B23E22BF32B4C9C90014D9C300D3F
:100C40005C9C300D1124C701688970E00E94D206B7
:100C5000262337238E859F8528233923E22BF32BE8
:100C60006C9C90016D9C300D7C9C300D1124C70153
:100C70006D8570E00E94D20626233723AB85BC85A4
:100C80002A233B23E22BF32B8C9C90018D9C300D6F
:100C90009C9C300D1124C7016A8570E00E94D20629
:100CA000262337238885998528233923E22BF32BA4
:100CB000AC9C9001AD9C300DBC9C300D1124C70143
:100CC0006F8170E00E94D20626233723AD81BE815A
:100CD0002A233B23E22BF32B8B819C818C9D90015B
:100CE0008D9D300D9C9D300D1124C701642F70E047
:100CF0000E94D20626233723A981BA812A233B23C7
:100D00008E2F822B0E947B0080910E0190910F010B
:100D1000019690930F0180930E0110920001809133
:100D20000A0190910B01419730F00E94A8031092A4
:100D30000B0110920A0180910C0190910D01819795
:100D400008F4EECD85E191E0609110010E9403016D
:100D5000809110018F5F87708093100110920D01B8
:100D600010920C01DDCD629FD001739FF001829F34
:100D7000E00DF11D649FE00DF11D929FF00D839F2A
:100D8000F00D749FF00D659FF00D9927729FB00DC7
:100D9000E11DF91F639FB00DE11DF91FBD01CF01DA
:100DA00011240895AA1BBB1B51E107C0AA1FBB1F3A
:100DB000A617B70710F0A61BB70B881F991F5A95E7
:100DC000A9F780959095BC01CD010895A1E21A2E56
:100DD000AA1BBB1BFD010DC0AA1FBB1FEE1FFF1FDF
:100DE000A217B307E407F50720F0A21BB30BE40B2F
:100DF000F50B661F771F881F991F1A9469F7609576
:100E00007095809590959B01AC01BD01CF0108952F
:040E1000F894FFCF84
:0A0E1400010004080C1014181C0063
:00000001FF
